{
    "_format": "hh-sol-artifact-1",
    "contractName": "MyCoin",
    "sourceName": "contracts/ERC20/MyCoin.sol",
    "abi": [
        {
            "inputs": [
                {
                    "internalType": "uint256",
                    "name": "_initialSupply",
                    "type": "uint256"
                },
                {
                    "internalType": "uint8",
                    "name": "_decimal",
                    "type": "uint8"
                }
            ],
            "stateMutability": "nonpayable",
            "type": "constructor"
        },
        {
            "inputs": [
                {
                    "internalType": "address",
                    "name": "sender",
                    "type": "address"
                },
                {
                    "internalType": "uint256",
                    "name": "value",
                    "type": "uint256"
                }
            ],
            "name": "BalanceInsuficiente",
            "type": "error"
        },
        {
            "anonymous": false,
            "inputs": [
                {
                    "indexed": true,
                    "internalType": "address",
                    "name": "owner",
                    "type": "address"
                },
                {
                    "indexed": true,
                    "internalType": "address",
                    "name": "spender",
                    "type": "address"
                },
                {
                    "indexed": false,
                    "internalType": "uint256",
                    "name": "value",
                    "type": "uint256"
                }
            ],
            "name": "Approval",
            "type": "event"
        },
        {
            "anonymous": false,
            "inputs": [
                {
                    "indexed": true,
                    "internalType": "address",
                    "name": "previousOwner",
                    "type": "address"
                },
                {
                    "indexed": true,
                    "internalType": "address",
                    "name": "newOwner",
                    "type": "address"
                }
            ],
            "name": "OwnershipTransferred",
            "type": "event"
        },
        {
            "anonymous": false,
            "inputs": [
                {
                    "indexed": true,
                    "internalType": "address",
                    "name": "from",
                    "type": "address"
                },
                {
                    "indexed": true,
                    "internalType": "address",
                    "name": "to",
                    "type": "address"
                },
                {
                    "indexed": false,
                    "internalType": "uint256",
                    "name": "value",
                    "type": "uint256"
                }
            ],
            "name": "Transfer",
            "type": "event"
        },
        {
            "inputs": [
                {
                    "internalType": "address",
                    "name": "owner",
                    "type": "address"
                },
                {
                    "internalType": "address",
                    "name": "spender",
                    "type": "address"
                }
            ],
            "name": "allowance",
            "outputs": [
                {
                    "internalType": "uint256",
                    "name": "",
                    "type": "uint256"
                }
            ],
            "stateMutability": "view",
            "type": "function"
        },
        {
            "inputs": [
                {
                    "internalType": "address",
                    "name": "spender",
                    "type": "address"
                },
                {
                    "internalType": "uint256",
                    "name": "amount",
                    "type": "uint256"
                }
            ],
            "name": "approve",
            "outputs": [
                {
                    "internalType": "bool",
                    "name": "",
                    "type": "bool"
                }
            ],
            "stateMutability": "nonpayable",
            "type": "function"
        },
        {
            "inputs": [
                {
                    "internalType": "address",
                    "name": "account",
                    "type": "address"
                }
            ],
            "name": "balanceOf",
            "outputs": [
                {
                    "internalType": "uint256",
                    "name": "",
                    "type": "uint256"
                }
            ],
            "stateMutability": "view",
            "type": "function"
        },
        {
            "inputs": [
                {
                    "internalType": "address",
                    "name": "",
                    "type": "address"
                }
            ],
            "name": "blacklist",
            "outputs": [
                {
                    "internalType": "bool",
                    "name": "",
                    "type": "bool"
                }
            ],
            "stateMutability": "view",
            "type": "function"
        },
        {
            "inputs": [],
            "name": "decimal",
            "outputs": [
                {
                    "internalType": "uint8",
                    "name": "",
                    "type": "uint8"
                }
            ],
            "stateMutability": "view",
            "type": "function"
        },
        {
            "inputs": [],
            "name": "decimals",
            "outputs": [
                {
                    "internalType": "uint8",
                    "name": "",
                    "type": "uint8"
                }
            ],
            "stateMutability": "pure",
            "type": "function"
        },
        {
            "inputs": [
                {
                    "internalType": "address",
                    "name": "spender",
                    "type": "address"
                },
                {
                    "internalType": "uint256",
                    "name": "subtractedValue",
                    "type": "uint256"
                }
            ],
            "name": "decreaseAllowance",
            "outputs": [
                {
                    "internalType": "bool",
                    "name": "",
                    "type": "bool"
                }
            ],
            "stateMutability": "nonpayable",
            "type": "function"
        },
        {
            "inputs": [
                {
                    "internalType": "address",
                    "name": "_to",
                    "type": "address"
                },
                {
                    "internalType": "uint256",
                    "name": "_value",
                    "type": "uint256"
                }
            ],
            "name": "doTransfer",
            "outputs": [
                {
                    "internalType": "bool",
                    "name": "",
                    "type": "bool"
                }
            ],
            "stateMutability": "nonpayable",
            "type": "function"
        },
        {
            "inputs": [
                {
                    "internalType": "address",
                    "name": "_account",
                    "type": "address"
                }
            ],
            "name": "getBalance",
            "outputs": [
                {
                    "internalType": "uint256",
                    "name": "",
                    "type": "uint256"
                }
            ],
            "stateMutability": "view",
            "type": "function"
        },
        {
            "inputs": [
                {
                    "internalType": "address",
                    "name": "spender",
                    "type": "address"
                },
                {
                    "internalType": "uint256",
                    "name": "addedValue",
                    "type": "uint256"
                }
            ],
            "name": "increaseAllowance",
            "outputs": [
                {
                    "internalType": "bool",
                    "name": "",
                    "type": "bool"
                }
            ],
            "stateMutability": "nonpayable",
            "type": "function"
        },
        {
            "inputs": [
                {
                    "internalType": "uint256",
                    "name": "_amount",
                    "type": "uint256"
                },
                {
                    "internalType": "address",
                    "name": "_receiver",
                    "type": "address"
                }
            ],
            "name": "mintNewTokens",
            "outputs": [],
            "stateMutability": "nonpayable",
            "type": "function"
        },
        {
            "inputs": [],
            "name": "name",
            "outputs": [
                {
                    "internalType": "string",
                    "name": "",
                    "type": "string"
                }
            ],
            "stateMutability": "view",
            "type": "function"
        },
        {
            "inputs": [],
            "name": "owner",
            "outputs": [
                {
                    "internalType": "address",
                    "name": "",
                    "type": "address"
                }
            ],
            "stateMutability": "view",
            "type": "function"
        },
        {
            "inputs": [],
            "name": "renounceOwnership",
            "outputs": [],
            "stateMutability": "nonpayable",
            "type": "function"
        },
        {
            "inputs": [
                {
                    "internalType": "uint8",
                    "name": "_decimal",
                    "type": "uint8"
                }
            ],
            "name": "setDecimals",
            "outputs": [
                {
                    "internalType": "uint8",
                    "name": "",
                    "type": "uint8"
                }
            ],
            "stateMutability": "nonpayable",
            "type": "function"
        },
        {
            "inputs": [],
            "name": "status",
            "outputs": [
                {
                    "internalType": "bool",
                    "name": "",
                    "type": "bool"
                }
            ],
            "stateMutability": "view",
            "type": "function"
        },
        {
            "inputs": [],
            "name": "switcher",
            "outputs": [
                {
                    "internalType": "bool",
                    "name": "",
                    "type": "bool"
                }
            ],
            "stateMutability": "nonpayable",
            "type": "function"
        },
        {
            "inputs": [
                {
                    "internalType": "address",
                    "name": "_account",
                    "type": "address"
                }
            ],
            "name": "switcherAccount",
            "outputs": [
                {
                    "internalType": "bool",
                    "name": "",
                    "type": "bool"
                }
            ],
            "stateMutability": "nonpayable",
            "type": "function"
        },
        {
            "inputs": [],
            "name": "symbol",
            "outputs": [
                {
                    "internalType": "string",
                    "name": "",
                    "type": "string"
                }
            ],
            "stateMutability": "view",
            "type": "function"
        },
        {
            "inputs": [],
            "name": "totalSupply",
            "outputs": [
                {
                    "internalType": "uint256",
                    "name": "",
                    "type": "uint256"
                }
            ],
            "stateMutability": "view",
            "type": "function"
        },
        {
            "inputs": [
                {
                    "internalType": "address",
                    "name": "to",
                    "type": "address"
                },
                {
                    "internalType": "uint256",
                    "name": "amount",
                    "type": "uint256"
                }
            ],
            "name": "transfer",
            "outputs": [
                {
                    "internalType": "bool",
                    "name": "",
                    "type": "bool"
                }
            ],
            "stateMutability": "nonpayable",
            "type": "function"
        },
        {
            "inputs": [
                {
                    "internalType": "address",
                    "name": "from",
                    "type": "address"
                },
                {
                    "internalType": "address",
                    "name": "to",
                    "type": "address"
                },
                {
                    "internalType": "uint256",
                    "name": "amount",
                    "type": "uint256"
                }
            ],
            "name": "transferFrom",
            "outputs": [
                {
                    "internalType": "bool",
                    "name": "",
                    "type": "bool"
                }
            ],
            "stateMutability": "nonpayable",
            "type": "function"
        },
        {
            "inputs": [
                {
                    "internalType": "address",
                    "name": "newOwner",
                    "type": "address"
                }
            ],
            "name": "transferOwnership",
            "outputs": [],
            "stateMutability": "nonpayable",
            "type": "function"
        }
    ],
    "bytecode": "0x60806040526001600560156101000a81548160ff0219169083151502179055503480156200002c57600080fd5b506040516200271f3803806200271f8339818101604052810190620000529190620003fc565b6040518060400160405280600681526020017f4d79436f696e00000000000000000000000000000000000000000000000000008152506040518060400160405280600381526020017f4d594300000000000000000000000000000000000000000000000000000000008152508160039081620000cf9190620006b3565b508060049081620000e19190620006b3565b50505062000104620000f86200013960201b60201c565b6200014160201b60201c565b6200011633836200020760201b60201c565b80600560146101000a81548160ff021916908360ff1602179055505050620008b5565b600033905090565b6000600560009054906101000a900473ffffffffffffffffffffffffffffffffffffffff16905081600560006101000a81548173ffffffffffffffffffffffffffffffffffffffff021916908373ffffffffffffffffffffffffffffffffffffffff1602179055508173ffffffffffffffffffffffffffffffffffffffff168173ffffffffffffffffffffffffffffffffffffffff167f8be0079c531659141344cd1fd0a4f28419497f9722a3daafe3b4186f6b6457e060405160405180910390a35050565b600073ffffffffffffffffffffffffffffffffffffffff168273ffffffffffffffffffffffffffffffffffffffff160362000279576040517f08c379a00000000000000000000000000000000000000000000000000000000081526004016200027090620007fb565b60405180910390fd5b6200028d600083836200037460201b60201c565b8060026000828254620002a191906200084c565b92505081905550806000808473ffffffffffffffffffffffffffffffffffffffff1673ffffffffffffffffffffffffffffffffffffffff168152602001908152602001600020600082825401925050819055508173ffffffffffffffffffffffffffffffffffffffff16600073ffffffffffffffffffffffffffffffffffffffff167fddf252ad1be2c89b69c2b068fc378daa952ba7f163c4a11628f55a4df523b3ef8360405162000354919062000898565b60405180910390a362000370600083836200037960201b60201c565b5050565b505050565b505050565b600080fd5b6000819050919050565b620003988162000383565b8114620003a457600080fd5b50565b600081519050620003b8816200038d565b92915050565b600060ff82169050919050565b620003d681620003be565b8114620003e257600080fd5b50565b600081519050620003f681620003cb565b92915050565b600080604083850312156200041657620004156200037e565b5b60006200042685828601620003a7565b92505060206200043985828601620003e5565b9150509250929050565b600081519050919050565b7f4e487b7100000000000000000000000000000000000000000000000000000000600052604160045260246000fd5b7f4e487b7100000000000000000000000000000000000000000000000000000000600052602260045260246000fd5b60006002820490506001821680620004c557607f821691505b602082108103620004db57620004da6200047d565b5b50919050565b60008190508160005260206000209050919050565b60006020601f8301049050919050565b600082821b905092915050565b600060088302620005457fffffffffffffffffffffffffffffffffffffffffffffffffffffffffffffffff8262000506565b62000551868362000506565b95508019841693508086168417925050509392505050565b6000819050919050565b6000620005946200058e620005888462000383565b62000569565b62000383565b9050919050565b6000819050919050565b620005b08362000573565b620005c8620005bf826200059b565b84845462000513565b825550505050565b600090565b620005df620005d0565b620005ec818484620005a5565b505050565b5b81811015620006145762000608600082620005d5565b600181019050620005f2565b5050565b601f82111562000663576200062d81620004e1565b6200063884620004f6565b8101602085101562000648578190505b620006606200065785620004f6565b830182620005f1565b50505b505050565b600082821c905092915050565b6000620006886000198460080262000668565b1980831691505092915050565b6000620006a3838362000675565b9150826002028217905092915050565b620006be8262000443565b67ffffffffffffffff811115620006da57620006d96200044e565b5b620006e68254620004ac565b620006f382828562000618565b600060209050601f8311600181146200072b576000841562000716578287015190505b62000722858262000695565b86555062000792565b601f1984166200073b86620004e1565b60005b8281101562000765578489015182556001820191506020850194506020810190506200073e565b8683101562000785578489015162000781601f89168262000675565b8355505b6001600288020188555050505b505050505050565b600082825260208201905092915050565b7f45524332303a206d696e7420746f20746865207a65726f206164647265737300600082015250565b6000620007e3601f836200079a565b9150620007f082620007ab565b602082019050919050565b600060208201905081810360008301526200081681620007d4565b9050919050565b7f4e487b7100000000000000000000000000000000000000000000000000000000600052601160045260246000fd5b6000620008598262000383565b9150620008668362000383565b92508282019050808211156200088157620008806200081d565b5b92915050565b620008928162000383565b82525050565b6000602082019050620008af600083018462000887565b92915050565b611e5a80620008c56000396000f3fe608060405234801561001057600080fd5b506004361061014d5760003560e01c80637a1395aa116100c3578063adcab90d1161007c578063adcab90d146103ca578063bc4462de146103fa578063dd62ed3e14610418578063f2fde38b14610448578063f8b2cb4f14610464578063f9f92be4146104945761014d565b80637a1395aa146102e257806385956649146103125780638da5cb5b1461032e57806395d89b411461034c578063a457c2d71461036a578063a9059cbb1461039a5761014d565b806323b872dd1161011557806323b872dd1461020c578063313ce5671461023c578063395093511461025a57806370a082311461028a578063715018a6146102ba57806376809ce3146102c45761014d565b806306fdde0314610152578063095ea7b3146101705780630f24f5c8146101a057806318160ddd146101d0578063200d2ed2146101ee575b600080fd5b61015a6104c4565b6040516101679190611432565b60405180910390f35b61018a600480360381019061018591906114ed565b610556565b6040516101979190611548565b60405180910390f35b6101ba60048036038101906101b591906114ed565b610579565b6040516101c79190611548565b60405180910390f35b6101d8610671565b6040516101e59190611572565b60405180910390f35b6101f661067b565b6040516102039190611548565b60405180910390f35b6102266004803603810190610221919061158d565b61068e565b6040516102339190611548565b60405180910390f35b6102446106bd565b60405161025191906115fc565b60405180910390f35b610274600480360381019061026f91906114ed565b6106c6565b6040516102819190611548565b60405180910390f35b6102a4600480360381019061029f9190611617565b6106fd565b6040516102b19190611572565b60405180910390f35b6102c2610745565b005b6102cc610759565b6040516102d991906115fc565b60405180910390f35b6102fc60048036038101906102f79190611670565b61076c565b60405161030991906115fc565b60405180910390f35b61032c6004803603810190610327919061169d565b6107a8565b005b6103366107be565b60405161034391906116ec565b60405180910390f35b6103546107e8565b6040516103619190611432565b60405180910390f35b610384600480360381019061037f91906114ed565b61087a565b6040516103919190611548565b60405180910390f35b6103b460048036038101906103af91906114ed565b6108f1565b6040516103c19190611548565b60405180910390f35b6103e460048036038101906103df9190611617565b610914565b6040516103f19190611548565b60405180910390f35b610402610a7a565b60405161040f9190611548565b60405180910390f35b610432600480360381019061042d9190611707565b610aea565b60405161043f9190611572565b60405180910390f35b610462600480360381019061045d9190611617565b610b71565b005b61047e60048036038101906104799190611617565b610bf4565b60405161048b9190611572565b60405180910390f35b6104ae60048036038101906104a99190611617565b610c0b565b6040516104bb9190611548565b60405180910390f35b6060600380546104d390611776565b80601f01602080910402602001604051908101604052809291908181526020018280546104ff90611776565b801561054c5780601f106105215761010080835404028352916020019161054c565b820191906000526020600020905b81548152906001019060200180831161052f57829003601f168201915b5050505050905090565b600080610561610c2b565b905061056e818585610c33565b600191505092915050565b6000600560159054906101000a900460ff166105ca576040517f08c379a00000000000000000000000000000000000000000000000000000000081526004016105c1906117f3565b60405180910390fd5b33600660008273ffffffffffffffffffffffffffffffffffffffff1673ffffffffffffffffffffffffffffffffffffffff16815260200190815260200160002060009054906101000a900460ff1615610658576040517f08c379a000000000000000000000000000000000000000000000000000000000815260040161064f9061185f565b60405180910390fd5b600061066485856108f1565b9050809250505092915050565b6000600254905090565b600560159054906101000a900460ff1681565b600080610699610c2b565b90506106a6858285610dfc565b6106b1858585610e88565b60019150509392505050565b60006002905090565b6000806106d1610c2b565b90506106f28185856106e38589610aea565b6106ed91906118ae565b610c33565b600191505092915050565b60008060008373ffffffffffffffffffffffffffffffffffffffff1673ffffffffffffffffffffffffffffffffffffffff168152602001908152602001600020549050919050565b61074d6110fe565b610757600061117c565b565b600560149054906101000a900460ff1681565b60006107766110fe565b81600560146101000a81548160ff021916908360ff160217905550600560149054906101000a900460ff169050919050565b6107b06110fe565b6107ba8183611242565b5050565b6000600560009054906101000a900473ffffffffffffffffffffffffffffffffffffffff16905090565b6060600480546107f790611776565b80601f016020809104026020016040519081016040528092919081815260200182805461082390611776565b80156108705780601f1061084557610100808354040283529160200191610870565b820191906000526020600020905b81548152906001019060200180831161085357829003601f168201915b5050505050905090565b600080610885610c2b565b905060006108938286610aea565b9050838110156108d8576040517f08c379a00000000000000000000000000000000000000000000000000000000081526004016108cf90611954565b60405180910390fd5b6108e58286868403610c33565b60019250505092915050565b6000806108fc610c2b565b9050610909818585610e88565b600191505092915050565b600061091e6110fe565b600660008373ffffffffffffffffffffffffffffffffffffffff1673ffffffffffffffffffffffffffffffffffffffff16815260200190815260200160002060009054906101000a900460ff16156109cd576000600660008473ffffffffffffffffffffffffffffffffffffffff1673ffffffffffffffffffffffffffffffffffffffff16815260200190815260200160002060006101000a81548160ff021916908315150217905550610a26565b6001600660008473ffffffffffffffffffffffffffffffffffffffff1673ffffffffffffffffffffffffffffffffffffffff16815260200190815260200160002060006101000a81548160ff0219169083151502179055505b600660008373ffffffffffffffffffffffffffffffffffffffff1673ffffffffffffffffffffffffffffffffffffffff16815260200190815260200160002060009054906101000a900460ff169050919050565b6000610a846110fe565b600560159054906101000a900460ff1615610ab9576000600560156101000a81548160ff021916908315150217905550610ad5565b6001600560156101000a81548160ff0219169083151502179055505b600560159054906101000a900460ff16905090565b6000600160008473ffffffffffffffffffffffffffffffffffffffff1673ffffffffffffffffffffffffffffffffffffffff16815260200190815260200160002060008373ffffffffffffffffffffffffffffffffffffffff1673ffffffffffffffffffffffffffffffffffffffff16815260200190815260200160002054905092915050565b610b796110fe565b600073ffffffffffffffffffffffffffffffffffffffff168173ffffffffffffffffffffffffffffffffffffffff1603610be8576040517f08c379a0000000000000000000000000000000000000000000000000000000008152600401610bdf906119e6565b60405180910390fd5b610bf18161117c565b50565b600080610c00836106fd565b905080915050919050565b60066020528060005260406000206000915054906101000a900460ff1681565b600033905090565b600073ffffffffffffffffffffffffffffffffffffffff168373ffffffffffffffffffffffffffffffffffffffff1603610ca2576040517f08c379a0000000000000000000000000000000000000000000000000000000008152600401610c9990611a78565b60405180910390fd5b600073ffffffffffffffffffffffffffffffffffffffff168273ffffffffffffffffffffffffffffffffffffffff1603610d11576040517f08c379a0000000000000000000000000000000000000000000000000000000008152600401610d0890611b0a565b60405180910390fd5b80600160008573ffffffffffffffffffffffffffffffffffffffff1673ffffffffffffffffffffffffffffffffffffffff16815260200190815260200160002060008473ffffffffffffffffffffffffffffffffffffffff1673ffffffffffffffffffffffffffffffffffffffff168152602001908152602001600020819055508173ffffffffffffffffffffffffffffffffffffffff168373ffffffffffffffffffffffffffffffffffffffff167f8c5be1e5ebec7d5bd14f71427d1e84f3dd0314c0f7b2291e5b200ac8c7c3b92583604051610def9190611572565b60405180910390a3505050565b6000610e088484610aea565b90507fffffffffffffffffffffffffffffffffffffffffffffffffffffffffffffffff8114610e825781811015610e74576040517f08c379a0000000000000000000000000000000000000000000000000000000008152600401610e6b90611b76565b60405180910390fd5b610e818484848403610c33565b5b50505050565b600073ffffffffffffffffffffffffffffffffffffffff168373ffffffffffffffffffffffffffffffffffffffff1603610ef7576040517f08c379a0000000000000000000000000000000000000000000000000000000008152600401610eee90611c08565b60405180910390fd5b600073ffffffffffffffffffffffffffffffffffffffff168273ffffffffffffffffffffffffffffffffffffffff1603610f66576040517f08c379a0000000000000000000000000000000000000000000000000000000008152600401610f5d90611c9a565b60405180910390fd5b610f71838383611398565b60008060008573ffffffffffffffffffffffffffffffffffffffff1673ffffffffffffffffffffffffffffffffffffffff16815260200190815260200160002054905081811015610ff7576040517f08c379a0000000000000000000000000000000000000000000000000000000008152600401610fee90611d2c565b60405180910390fd5b8181036000808673ffffffffffffffffffffffffffffffffffffffff1673ffffffffffffffffffffffffffffffffffffffff16815260200190815260200160002081905550816000808573ffffffffffffffffffffffffffffffffffffffff1673ffffffffffffffffffffffffffffffffffffffff168152602001908152602001600020600082825401925050819055508273ffffffffffffffffffffffffffffffffffffffff168473ffffffffffffffffffffffffffffffffffffffff167fddf252ad1be2c89b69c2b068fc378daa952ba7f163c4a11628f55a4df523b3ef846040516110e59190611572565b60405180910390a36110f884848461139d565b50505050565b611106610c2b565b73ffffffffffffffffffffffffffffffffffffffff166111246107be565b73ffffffffffffffffffffffffffffffffffffffff161461117a576040517f08c379a000000000000000000000000000000000000000000000000000000000815260040161117190611d98565b60405180910390fd5b565b6000600560009054906101000a900473ffffffffffffffffffffffffffffffffffffffff16905081600560006101000a81548173ffffffffffffffffffffffffffffffffffffffff021916908373ffffffffffffffffffffffffffffffffffffffff1602179055508173ffffffffffffffffffffffffffffffffffffffff168173ffffffffffffffffffffffffffffffffffffffff167f8be0079c531659141344cd1fd0a4f28419497f9722a3daafe3b4186f6b6457e060405160405180910390a35050565b600073ffffffffffffffffffffffffffffffffffffffff168273ffffffffffffffffffffffffffffffffffffffff16036112b1576040517f08c379a00000000000000000000000000000000000000000000000000000000081526004016112a890611e04565b60405180910390fd5b6112bd60008383611398565b80600260008282546112cf91906118ae565b92505081905550806000808473ffffffffffffffffffffffffffffffffffffffff1673ffffffffffffffffffffffffffffffffffffffff168152602001908152602001600020600082825401925050819055508173ffffffffffffffffffffffffffffffffffffffff16600073ffffffffffffffffffffffffffffffffffffffff167fddf252ad1be2c89b69c2b068fc378daa952ba7f163c4a11628f55a4df523b3ef836040516113809190611572565b60405180910390a36113946000838361139d565b5050565b505050565b505050565b600081519050919050565b600082825260208201905092915050565b60005b838110156113dc5780820151818401526020810190506113c1565b60008484015250505050565b6000601f19601f8301169050919050565b6000611404826113a2565b61140e81856113ad565b935061141e8185602086016113be565b611427816113e8565b840191505092915050565b6000602082019050818103600083015261144c81846113f9565b905092915050565b600080fd5b600073ffffffffffffffffffffffffffffffffffffffff82169050919050565b600061148482611459565b9050919050565b61149481611479565b811461149f57600080fd5b50565b6000813590506114b18161148b565b92915050565b6000819050919050565b6114ca816114b7565b81146114d557600080fd5b50565b6000813590506114e7816114c1565b92915050565b6000806040838503121561150457611503611454565b5b6000611512858286016114a2565b9250506020611523858286016114d8565b9150509250929050565b60008115159050919050565b6115428161152d565b82525050565b600060208201905061155d6000830184611539565b92915050565b61156c816114b7565b82525050565b60006020820190506115876000830184611563565b92915050565b6000806000606084860312156115a6576115a5611454565b5b60006115b4868287016114a2565b93505060206115c5868287016114a2565b92505060406115d6868287016114d8565b9150509250925092565b600060ff82169050919050565b6115f6816115e0565b82525050565b600060208201905061161160008301846115ed565b92915050565b60006020828403121561162d5761162c611454565b5b600061163b848285016114a2565b91505092915050565b61164d816115e0565b811461165857600080fd5b50565b60008135905061166a81611644565b92915050565b60006020828403121561168657611685611454565b5b60006116948482850161165b565b91505092915050565b600080604083850312156116b4576116b3611454565b5b60006116c2858286016114d8565b92505060206116d3858286016114a2565b9150509250929050565b6116e681611479565b82525050565b600060208201905061170160008301846116dd565b92915050565b6000806040838503121561171e5761171d611454565b5b600061172c858286016114a2565b925050602061173d858286016114a2565b9150509250929050565b7f4e487b7100000000000000000000000000000000000000000000000000000000600052602260045260246000fd5b6000600282049050600182168061178e57607f821691505b6020821081036117a1576117a0611747565b5b50919050565b7f5472616e736665727320617265206e6f7420616c6c6f77656400000000000000600082015250565b60006117dd6019836113ad565b91506117e8826117a7565b602082019050919050565b6000602082019050818103600083015261180c816117d0565b9050919050565b7f4163636f756e74206973206e6f7420616c6c6f77656400000000000000000000600082015250565b60006118496016836113ad565b915061185482611813565b602082019050919050565b600060208201905081810360008301526118788161183c565b9050919050565b7f4e487b7100000000000000000000000000000000000000000000000000000000600052601160045260246000fd5b60006118b9826114b7565b91506118c4836114b7565b92508282019050808211156118dc576118db61187f565b5b92915050565b7f45524332303a2064656372656173656420616c6c6f77616e63652062656c6f7760008201527f207a65726f000000000000000000000000000000000000000000000000000000602082015250565b600061193e6025836113ad565b9150611949826118e2565b604082019050919050565b6000602082019050818103600083015261196d81611931565b9050919050565b7f4f776e61626c653a206e6577206f776e657220697320746865207a65726f206160008201527f6464726573730000000000000000000000000000000000000000000000000000602082015250565b60006119d06026836113ad565b91506119db82611974565b604082019050919050565b600060208201905081810360008301526119ff816119c3565b9050919050565b7f45524332303a20617070726f76652066726f6d20746865207a65726f2061646460008201527f7265737300000000000000000000000000000000000000000000000000000000602082015250565b6000611a626024836113ad565b9150611a6d82611a06565b604082019050919050565b60006020820190508181036000830152611a9181611a55565b9050919050565b7f45524332303a20617070726f766520746f20746865207a65726f20616464726560008201527f7373000000000000000000000000000000000000000000000000000000000000602082015250565b6000611af46022836113ad565b9150611aff82611a98565b604082019050919050565b60006020820190508181036000830152611b2381611ae7565b9050919050565b7f45524332303a20696e73756666696369656e7420616c6c6f77616e6365000000600082015250565b6000611b60601d836113ad565b9150611b6b82611b2a565b602082019050919050565b60006020820190508181036000830152611b8f81611b53565b9050919050565b7f45524332303a207472616e736665722066726f6d20746865207a65726f20616460008201527f6472657373000000000000000000000000000000000000000000000000000000602082015250565b6000611bf26025836113ad565b9150611bfd82611b96565b604082019050919050565b60006020820190508181036000830152611c2181611be5565b9050919050565b7f45524332303a207472616e7366657220746f20746865207a65726f206164647260008201527f6573730000000000000000000000000000000000000000000000000000000000602082015250565b6000611c846023836113ad565b9150611c8f82611c28565b604082019050919050565b60006020820190508181036000830152611cb381611c77565b9050919050565b7f45524332303a207472616e7366657220616d6f756e742065786365656473206260008201527f616c616e63650000000000000000000000000000000000000000000000000000602082015250565b6000611d166026836113ad565b9150611d2182611cba565b604082019050919050565b60006020820190508181036000830152611d4581611d09565b9050919050565b7f4f776e61626c653a2063616c6c6572206973206e6f7420746865206f776e6572600082015250565b6000611d826020836113ad565b9150611d8d82611d4c565b602082019050919050565b60006020820190508181036000830152611db181611d75565b9050919050565b7f45524332303a206d696e7420746f20746865207a65726f206164647265737300600082015250565b6000611dee601f836113ad565b9150611df982611db8565b602082019050919050565b60006020820190508181036000830152611e1d81611de1565b905091905056fea264697066735822122039bab9b9e47a0fd3f4063cd732299162fa2e37f5ba68d58a868f6f8bc7d18f3e64736f6c63430008130033",
    "linkReferences": {},
    "deployedLinkReferences": {}
}